:020000040800F2
:1000000068040020D5000008E3000008E5000008AF
:1000100000000000000000000000000000000000E0
:10002000000000000000000000000000E7000008E1
:100030000000000000000000E9000008EB000008DC
:10004000ED000008ED00000800000000ED000008D1
:10005000ED000008ED000008ED000008ED000008CC
:10006000ED000008ED000008ED000008ED000008BC
:10007000ED000008ED000008ED000008ED000008AC
:10008000ED0000080000000000000000ED00000886
:1000900000000000ED000008ED000008ED00000881
:1000A00000000000ED000008ED000008ED00000871
:1000B000ED000008ED000008350E0008000000000B
:1000C0000348854600F084F800480047E919000815
:1000D00068040020064880F30888064880470648E0
:1000E0000047FEE7FEE7FEE7FEE7FEE7FEE700006B
:1000F00068040020ED130008C100000830B50B466D
:10010000014600202022012409E00D46D5409D42F1
:1001100005D31D469540491B254695404019154677
:10012000521E002DF1DC30BD03460B439B0703D06C
:1001300009E008C9121F08C0042AFAD203E00B78AC
:100140000370401C491C521EF9D27047D2B201E024
:100150000270401C491EFBD270470022F6E710B522
:1001600013460A4604461946FFF7F0FF204610BD25
:10017000F0B51FB40646002082B005464024019128
:1001800000901BE0019922460F46304600F042F8ED
:10019000049A059B801A994110D3104619462246AD
:1001A00000F028F8361A8F410197224601200021DD
:1001B000009F00F01FF838184D4100902046641E43
:1001C0000028DFDC019B00982946324607B0F0BDCD
:1001D000064C0125064E05E0E36807CC2B430C3C9A
:1001E00098471034B442F7D3FFF76EFF041C0008A1
:1001F000241C000810B5202A04DB0146203A914057
:10020000002010BD914020239C1A0346E34019436F
:10021000904010BD10B5202A04DB0846203AD0409B
:10022000002110BD0B46D340D0402024A21A91409B
:100230000843194610BDFFB583B00C460294002058
:100240000190002726E000261CE0721C0399514310
:100250000846791CFFF752FF0546A54201D9281B25
:1002600000E0601B05460298A84204D90295059853
:100270000670069807700298002802D101200190AC
:1002800002E0761C402EE0D300BF0198002800D089
:1002900002E07F1C042FD6D300BF029807B0F0BD48
:1002A00010B586B004460121880300F0EFFE01215D
:1002B000480400F0CBFE01220921C80600F075FEBB
:1002C00005A800F086FE01214902684681820121CD
:1002D00081751821C17505A90920C00600F018FE16
:1002E00001A801F008F9019430216846017200214B
:1002F0008172017301741021C18101A9044801F0C8
:10030000BBF80121024801F0A7F806B010BD0000BB
:100310000038014007200007024908600248486091
:1003200070470000040000200000080810B58AB0E3
:100330000121480400F08AFE0121480600F096FEE3
:1003400003220B210920C00600F02FFE03220C21FE
:100350000920C00600F029FE02A800F03AFE0121A3
:10036000C90268460181012181720421C17202A97A
:100370000920C00600F0CCFD012109036846018177
:10038000012181721821C17202A90920C00600F062
:10039000BFFD00F09BFE044605A800F02FFA0021E7
:1003A00068460176304805906846C176012181771C
:1003B000224605A92D4800F048FA012208212B48C1
:1003C00000F0CAFCFF210131284800F0F0F90122B9
:1003D0000A21264800F0C0FC01218902234800F0D0
:1003E000E6F9FFF797FF224803900221684601745F
:1003F0000021417401218174012203A91B4800F0EE
:1004000083FB3F2252060021184800F03BFC194AAA
:100410000121164800F036FCE021144800F0C7F92D
:1004200003208003012189060140012292069142A6
:1004300004D10E49096811430C4A11600B494968FF
:1004400001239B0602469A431143084A516000BFAC
:100450001E216846017101214171817101A800F0DE
:10046000C1FD0AB010BD000090D0030000C00040E4
:10047000040000200000F87F05480078012804D11E
:10048000002003490870034870470020FCE7000083
:1004900000000020380000200021094A116011717D
:1004A0005173002005E000220549491D0A54411CF2
:1004B000C8B20828F7DB0021024A1170704700001B
:1004C000580000200C00002070B588B0FFF7D4FF62
:1004D0000546002D01D108B070BD284600F0B4F8E3
:1004E000044628688002C00F002849D1FF2002304E
:1004F000844245D1284600F0B5F801203F490870F4
:100500003F48007B3E49C97A3D4A927A3C4B5B7A30
:1005100002930392049105903948007A3849C979C9
:10052000009101903648837942790179354800F08D
:10053000EFFF3348007B3249C97A314A927A304B17
:100540005B7A2F4E0093019202910390337AF279F5
:10055000B179707900F0AEF83046027BC17A807ACA
:1005600033465B7A019302AB07C33046007A0090B2
:100570003046C37982794179234800F0C9FFAAE760
:1005800028688002C00F002835D01F2000062040B8
:100590000321C90688422ED1284600F063F80120C5
:1005A000164908701648017BC07A154A927A144B96
:1005B0005B7A03930492069105901148007A1049E2
:1005C000C9790F4A92790092019102900C484379BF
:1005D000027921460D4800F09BFF00200090019019
:1005E00002904423332222210390112000F062F86C
:1005F00007A000F08DFF00BF6DE700000C00002099
:10060000580000206C1B0008241B0008B81B0008C1
:100610000D0A5B43414E2054585D207265706C7921
:100620002053544420307831343120444154413DEA
:1006300031312032322033332034342030302030F6
:100640003020303020303000014608688002C00F72
:10065000002803D04868C000C00870474868C00040
:10066000400DFAE710B504462046FFF7EDFF1049AC
:10067000086020680003000F087120688002C00F26
:100680000121484048400A494873E07A4871A17AFC
:1006900007488171617AC171217A0172E17B4172EF
:1006A000A17B8172617BC172217B017310BD00004F
:1006B00058000020FFB581B005460E4617461E487B
:1006C00000680121490588431B4908600846006805
:1006D0000121090588431849086018484860084600
:1006E00000680F21090488430121C90440181249F8
:1006F00008600846C57286724772049808720A98A4
:10070000C8730B9888730C9848730D9808730A4641
:1007100008210B4800F040FB0446002C08D021467D
:1007200008A000F0F5FE01220821054800F014FBA6
:10073000204605B0F0BD0000480000200000040580
:1007400000C000400D0A5B43414E2054585D2073A9
:10075000656E64206661696C2C20737461747573B6
:100760003D256C750000000010B5FFF7ADFE10BD13
:10077000016370470162704700290BD00268520084
:100780005208026000BF026801231B051A40002ABC
:10079000F9D10BE002680123DB071A43026000BFB6
:1007A000026801231B051A40002AF9D07047826AAB
:1007B0000A43826270470168012292071143016077
:1007C000016892101143016000BF01680122120606
:1007D00011400029F9D070470168012212079143A6
:1007E0000160016892009143016000BF016801222D
:1007F000120611400029F9D17047000010B50446D7
:1008000014212046FFF7A9FC002020710A4820602F
:100810001020A0710020E071012020720020607281
:100820006071A072E0722073032161740221A174CF
:100830000121E174217410BD20A107000246106B54
:10084000084070470146086A7047F7B584B006460D
:100850000C4600213046FFF78FFF2079002804D195
:10086000706801214903884303E07068012149034E
:100870000843706001213046FFF77EFF304600F0EC
:10088000C1F877683568E079002804D0384601213E
:100890000903084303E0384601210903884307465A
:1008A000207A002803D038462021084302E0384649
:1008B000202188430746207B002803D038460821A2
:1008C000084302E03846082188430746E809C0018A
:1008D000A179491E4906490E08430546607A002859
:1008E00004D0284601218905084303E02846012158
:1008F0008905884305466079012804D128460121ED
:10090000C904084303E028460121C9048843054679
:10091000A07A002804D0284601210904084303E0F6
:1009200028460121090488430546E07A002804D0BE
:10093000284601214904084303E0284601214904CF
:100940008843054677603560608A694608800622DC
:1009500021460E3102A8FFF7E7FB2068019002460E
:100960003046029B069900F08BF807B0F0BD70B5D9
:100970000246146801256D072C40002C3FD08024CE
:10098000A3588424A458E400E4084C602D120C6899
:10099000AC431D406D0D6D050126760535402C4399
:1009A0000C6075100C68AC431D402D0D2D057610A4
:1009B00035402C430C600F252D040C68AC431D40C2
:1009C0002D0C2D040F26360435402C430C600C688A
:1009D000240C24049DB22C430C608824A4588C6001
:1009E0008C24A558CD60D56CED05EC0DE4050D68A3
:1009F0006D026D0A25430D609468002000E001201F
:100A000070BD000010B500BF026801231B051A402D
:100A1000002AF9D102685B011A43026000BF026834
:100A200001235B061A40002AF9D10268124B1A43CF
:100A3000026080224260B32212044263002107E078
:100A40000E4A8B001124E4010419E2504A1CD1B271
:100A50001029F5D3094A0261426182618264002152
:100A600006E000230C010246803213514A1CD1B229
:100A70001029F6D310BD00000F002800FFFFFF3F34
:100A80000FB4F8B50F46164600242FE0A0001D4A0B
:100A9000105C704301463846FFF730FB002923D134
:100AA000A000184A105C704301463846FFF726FB49
:100AB000054669468D84002D16D0FF200130854201
:100AC00012D8A0000F494018817808A8C171A00071
:100AD0000C494018C17808A80172A00009494018C3
:100AE000417808A8417203E0601CC4B2122CCDD337
:100AF00000BF09A9069800F0FFF8F8BC08BC04B0D4
:100B000018470000DC1A0008F7B585B004460E4609
:100B10000020019000902046FFF74DFE0798002826
:100B200073D020684006400E00900098102801D233
:100B3000009800E010200090002513E0681CC00021
:100B4000317988420CD30195606B0F2109068843E7
:100B5000019D29060F22120611400843606303E03D
:100B6000681CC5B20F2DE9D900BF0198401C400098
:100B7000801DC7B200200390062523E029012046EE
:100B80008030081804900020029016E03179039814
:100B9000814204DD316803988000085801E000209C
:100BA000C04302998A00049988500398401CC0B23F
:100BB00003900298401CC0B2029002980428E5D32A
:100BC000681CC5B2BD42D9DB7079002806D0012867
:100BD0000AD0022810D003281FD117E02068032173
:100BE00009028843206019E0206803210902884334
:100BF000FF300130206011E02068032109028843A2
:100C0000FF30FF300230206008E01BE02068032145
:100C1000090288434018206000E000BF00BFB0799F
:100C2000012804D1606B01218904884303E0606BD3
:100C300001218904084360632068012149070843B2
:100C400020601AE0606B0F2109060840000E019039
:100C50000198401C4000871D2068012149078843F6
:100C60002060002507E000231A462946204600F0B0
:100C700019F8681CC5B2BD42F5DB2046FFF7ACFD94
:100C800008B0F0BD30B503460C4615461846FFF7D0
:100C900092FDA0001121C90159180D501846FFF707
:100CA0009BFD30BDF0B51C46002300250E01074614
:100CB0008037BD510E01F61975600E01F619B56049
:100CC0000E01F619F560002C14D00E01F619156806
:100CD00075601579012D01D16D052B435579012DD5
:100CE00001D12D052B430125AD062B430D010646F1
:100CF00080367351F0BD000010B504460B46204607
:100D0000FFF759FD60681349084060601878401E7D
:100D10000006000E0006997889050322920511400D
:100D20000843D978491EC9040722D2041140084358
:100D30001979491E0904D210114008435979491EF6
:100D40004907490F08436168084360602046FFF780
:100D500043FD10BDF8FF000030B5002A06D0012485
:100D6000E4060D01034680335C5104E000240D01CC
:100D7000034680335C5100240D0103468033EB1899
:100D80005C600D0103468033EB189C600D01034647
:100D90008033EB18DC6030BDF0B5034600240E0153
:100DA0001D468035AD590F26360635400326B6065A
:100DB000B5423DD00E011D468035AD590F26360691
:100DC000B5430126F606AD190E011F468037BD5109
:100DD0005568ED00ED080E01F61975601568AD0255
:100DE000ED0F002D02D003256D052C431568ED0293
:100DF000ED0F002D02D001252D052C4315682D0384
:100E00002D0F2D040F26360435400326B606354334
:100E10002C430E011F468037F6199568B5600E0108
:100E2000F619D568F5600D013E467451002000E0CA
:100E30000120F0BD10B520213148FFF7FFFC00284C
:100E40000AD030492E48FFF792FD20212C48FFF7A9
:100E50008FFC01202C49087040212948FFF7EEFC47
:100E6000002803D040212648FFF782FC8021244837
:100E7000FFF7E4FC002808D080212148FFF778FC28
:100E800022480088401C21490880FF2101311C486C
:100E9000FFF7D4FC002804D0FF2101311848FFF7E8
:100EA00067FC012189021648FFF7C8FC002804D01E
:100EB000012189021248FFF75BFC1148FFF7C2FCD1
:100EC00002210840002804D00D48FFF753FCFFF72B
:100ED0002DFA0B48FFF7B6FC0121C9030840002892
:100EE00004D00748FFF746FCFFF720FA00BF00BF19
:100EF00000BFBFF34F8F00BF00BF00BF10BD000099
:100F000000C0004038000020000000200200002047
:100F1000F8B50246CD782F073F0FCD781026354023
:100F2000002D01D08D782F431446002011E0850656
:100F30002B0E0D88012686403540002D07D02568F0
:100F40000F269E40B5433E469E4035432560451CD6
:100F5000E8B20828EBDB141D0D882D120095002047
:100F600011E085062B0E01258540009E3540002DA1
:100F700007D025680F269E40B5433E469E40354328
:100F80002560451CE8B20828EBDBCD78282D04D17C
:100F900055690E883543556106E0CD78482D03D15B
:100FA00015690E8835431561F8BD70B54D07EB0E18
:100FB000082902DA0546203501E0054624352C468D
:100FC0000F269E402568B54316469E403543256052
:100FD00070BD0021C9430180022181700421C170CC
:100FE000704700008178002925D01749032212029A
:100FF0008918027892109200895802789207D30ECD
:10100000FF229A40914342789207120E03789B0781
:10101000DB0E9A4011430C4A03231B02D2180378BB
:101020009B109B00D1500178CA06D20E012191403D
:10103000054A116007E00178CA06D20E01219140ED
:10104000014A80321160704700E100E0002905D0BC
:10105000054A52690243044B5A6104E0024A52694C
:101060008243014B5A61704700100240002905D0AD
:10107000054AD2690243044BDA6104E0024AD269AC
:101080008243014BDA61704700100240002905D00D
:10109000054A92690243044B9A6104E0024A92694C
:1010A0008243014B9A6170470010024010B500F076
:1010B00031F804494968F02211400909024A515C9B
:1010C000C84010BD001002402400002010B5FFF7FA
:1010D000EDFF05494968072212021140090A034A37
:1010E000515CC84010BD00000010024024000020E8
:1010F00010B5FFF7DBFF054949680722D20211400E
:10110000C90A034A515CC84010BD000000100240EB
:1011100024000020F8B51E4840680C21084004282F
:1011200002D008282ED101E01A4C2DE0184840309A
:101130000069C007C00F00280AD015484030006978
:1011400002210840002801D0134802E0114800E0C5
:10115000104807460E4840300069FF210904084046
:10116000000C451C0A48403000690721090208406C
:10117000000A461C3946694308463146FEF7BEFF61
:10118000044601E0034C00BF00BF2046F8BD00004C
:101190000010024000127A0000093D0010B500F076
:1011A00001F810BD30B587B00020039002900025F3
:1011B000002485480068012108438349086000BF76
:1011C00081480068022108400028F9D07E48006864
:1011D000C90308437C490860002401E000BF641C87
:1011E0007D20C0008442F9D313E0774800680121D4
:1011F0004904084002900298002800D00AE00398B1
:10120000401C0390192149020398884201D307B07A
:1012100030BDEAE700BF6C4800680121490408407E
:10122000002801D10290F2E701200290002401E0A1
:1012300000BF641C7D20C0008442F9D36348644928
:101240000860644800681021084362490860084645
:101250000068C008C00008605D490968481E5E4912
:10126000FEF74CFF0690069845076D0F5948006839
:101270002843584908605448406858490840524932
:10128000486008464068902108434F494860084636
:10129000406848604E4800684C49884207D94A482F
:1012A0004068052109020843474948600BE0484867
:1012B00000684B49884206D94348406801218902A9
:1012C0000843414948606B4601AA414801684548C6
:1012D000FEF7B1FF3C4840300069800880003A4981
:1012E0004031086108460069012108433649403110
:1012F0000861684600784007400F0490684600790E
:101300004006400E05903048C069890508432E49C3
:10131000C8612D4840300069334908402A494031AE
:101320000861049805020598000405430846006911
:10133000284308612448006801210906084322491E
:10134000086000E000BF204800680121490608400D
:101350000028F7D01C484068800880001A4948607F
:1013600008464068022108431749486000E000BF72
:10137000154840680C2108400828F8D1002401E0F5
:1013800000BF641C7D20C0008442F9D30E48406831
:10139000102188430C494860002401E000BF641C10
:1013A0007D20C0008442F9D30748406880218843EB
:1013B00005494860002401E000BF641C7D20C00096
:1013C0008442F9D300BF22E70010024000A24A0481
:1013D000100000200020024000366E010FC0FFFF09
:1013E0000051250200127A00FFF800FF10B51648E0
:1013F0000068012108431449086008464068134901
:1014000008401149486008460068114908400E49E3
:101410000860084600680121890488430A49086079
:1014200008464068C32109048843074948600846C4
:10143000006808490840044908609F20000488604B
:10144000FFF7ACFE10BD0000001002400CC0FFF81A
:10145000FFFFF6FEFFFF8F008269520852000A4329
:1014600082617047024690680840002801D0012040
:1014700070470020FCE7000070B504460D460026CA
:10148000E0693021884329790843E061E06944211B
:101490008843A9790843E061E06980088000297ADF
:1014A0000843E061A0691821884369890843A06165
:1014B000A06904218843297B0843A0610B4884422A
:1014C00003D1FFF715FE064602E0FFF7FFFD0646D3
:1014D00030462968FEF712FE00092062304629686E
:1014E000FEF70CFE0007000F606270BD003801407F
:1014F000CAB2026070474B21C901016030210171FD
:10150000002181710172182141810021017370470E
:101510000FB410B503A9044B044A029800F018F860
:1015200010BC08BC04B01847C519000834000020DE
:1015300002E008C8121F08C1002AFAD1704770479C
:10154000002001E001C1121F002AFBD170470000FA
:10155000FFB591B00F460546002606E025280AD0C3
:10156000149A139990476D1C761C28780028F5D1A1
:10157000304615B0F0BD002400940121F34A0294D6
:1015800000E004436D1C2B780846203B9840104235
:10159000F7D128782A280ED0022128780246303A3E
:1015A000092A15D8009A0A235A43303A80180C4366
:1015B0006D1C0090F1E701CF0090002805DA0120B2
:1015C00040030443009840420090022004436D1CF5
:1015D00028782E2815D10420044368786D1C2A2809
:1015E0000AD101CF6D1C02900BE002990A225143EF
:1015F000303940186D1C029028780146303909298D
:10160000F3D928786C2810D006DC4C281AD068282A
:101610000ED06A2817D104E0742813D07A2812D18A
:1016200010E00120400504430CE00121090501E020
:10163000032109050C436978814203D1012000058B
:1016400024186D1C6D1C287803906E281ED00CDCAD
:10165000632831D004DC00288AD0582811D1B2E0A8
:1016600064287BD069280CD178E073282DD004DC65
:101670006F2870D0702804D1A7E075286CD0782826
:101680006BD0149A13999047761C62E06002400F69
:10169000022807D003280AD0042838680AD0066038
:1016A0003F1D56E03868F11706604160F8E738687A
:1016B0000680F5E70670F3E738786946087400207D
:1016C000487404A80390012003E0386803900020C8
:1016D000C0433F1D61070FD5002101E00199491C5E
:1016E000029A0191914213DA8142F7DB019A039940
:1016F000895C0029F2D10BE0002101E00199491C2D
:1017000001918142FADB019A0399895C0029F5D1A4
:1017100001990098139A401A00902146149B00F0FA
:101720003BF901998019461807E00398039900785E
:10173000491C0391149A139990470198401E0190F7
:10174000401CF2D12146149B139A009800F014F922
:1017500086196D1C09E741E033E034E00A200021DE
:10176000049005916002410F022905D001CFC217F4
:101770009446032905D007E0FF1DFF08FF0003CFB3
:1017800006E000B2C2179446042902D140B2C11744
:101790008C4600226146944506DA0A460021404202
:1017A00091418C462D2102E0210504D52B216A466A
:1017B0001176012103E0E10701D02021F7E7019133
:1017C00054E00A200BE0102009E0102004900021D2
:1017D0000420044308200591029003E00820002122
:1017E000059104906002410F022905D001CF00222B
:1017F0009446032906D006E0FF1DFF08FF0003CF33
:101800008C4603E080B2042900D1C0B200210191CE
:1018100021072BD50399702906D0049A1021059B26
:101820004A401A4305D00EE040216A461176012154
:1018300008E06146014306D030216A4611760399DB
:10184000517602210191049A0821059B4A401A43CE
:101850000CD16146014301D1610707D530216A46A9
:101860001176012101910299491E0291039958298B
:1018700004D037A103910FA90F910DE039A1F9E729
:101880006146059B049AFEF773FC039B8C469B5CA8
:101890000F9A521E0F92137061460143F0D10F98B8
:1018A00007A9081A20300390600704D5012000041E
:1018B0008443029801E0012002900399884201DDEF
:1018C000401A00E000204118029001980918009881
:1018D000401A0090E00306D42146149B139A009806
:1018E00000F05AF886190020049008E006A9085C68
:1018F000149A139990470498401C761C04900199FF
:101900008842F3DBE0030CD52146149B139A009820
:1019100000F042F8861904E0149A30201399904799
:10192000761C0299481E02900029F5DC08E00F9809
:101930000F990078491C0F91149A13999047761CBF
:101940000399481E03900029F1DCFBE609280100F9
:101950003031323334353637383961626364656625
:1019600000000000303132333435363738394142E7
:101970004344454600000000F8B5044600251E46D5
:101980001746880404D405E039462020B0476D1C72
:10199000641EF9D52846F8BDFFB50446002581B080
:1019A0001E46C80301D5302700E02027880404D54F
:1019B00005E038460399B0476D1C641EF9D52846EA
:1019C00005B0F0BD70B504460D46E1B20548FFF71D
:1019D0008FFD00BF01210348FFF744FD0028F9D027
:1019E000204670BD00380140E1204002FEF758FC5F
:1019F000FEF79CFCFEF750FD0AA0FFF789FD12A040
:101A0000FFF786FD16A0FFF783FD1CA0FFF780FD02
:101A100022A0FFF77DFD28A0FFF77AFD01E0FEF789
:101A2000A3FEFCE70D0A3D3D3D3D3D3D3D3D3D3DB9
:101A30003D3D3D3D3D3D3D3D3D3D3D3D3D3D3D3DD6
:101A40003D3D3D3D000000000D0A5B426F6F745D3F
:101A50002043414E207265706C79206D6F64650083
:101A60000D0A5B426F6F745D20525820535444201E
:101A70004944203078313031000000000D0A5B42CB
:101A80006F6F745D205258204558542049442030CF
:101A90007831387878787878780000000D0A5B42E1
:101AA0006F6F745D205265706C79205354442049E7
:101AB00044203078313431000D0A3D3D3D3D3D3DFF
:101AC0003D3D3D3D3D3D3D3D3D3D3D3D3D3D3D3D46
:101AD0003D3D3D3D3D3D3D3D0D0A000008030202F8
:101AE000090303020A0303030B0403030C040403A6
:101AF0000D0504030E0504040F0604041006050476
:101B00001107050412070505130805051408060545
:101B10001508070516080706170808061808080715
:101B2000190808080D0A5B43414E2054585D207285
:101B300065706C792053544420307831343120441E
:101B40004154413D2530325820253032582025302F
:101B50003258202530325820253032582025303256
:101B60005820253032582025303258000D0A5B436A
:101B7000414E2052585D205354442030783130314A
:101B800020444C433D257520444154413D2530328D
:101B900058202530325820253032582025303258F0
:101BA0002025303258202530325820253032582018
:101BB00025303258000000000D0A5B43414E205290
:101BC000585D204558542030782530386C582044D2
:101BD0004C433D257520444154413D253032582029
:101BE00025303258202530325820253032582025D3
:101BF00030325820253032582025303258202530B8
:101C000032580000241C00080000002038000000AA
:101C1000301500085C1C000838000020300400006B
:101C20004015000800000000000000000000000057
:101C30000000000000A24A040000000000000000B4
:101C40000102030406070809000000000102030462
:0C1C500001020304060708090000000060
:04000005080000C12E
:00000001FF
